{
  "_format": "hh-sol-artifact-1",
  "contractName": "TrainBetting",
  "sourceName": "contracts/TrainBetting.sol",
  "abi": [
    {
      "inputs": [],
      "stateMutability": "nonpayable",
      "type": "constructor"
    },
    {
      "inputs": [],
      "name": "OK",
      "outputs": [
        {
          "internalType": "string",
          "name": "",
          "type": "string"
        }
      ],
      "stateMutability": "view",
      "type": "function"
    },
    {
      "inputs": [],
      "name": "SCHEDULED",
      "outputs": [
        {
          "internalType": "string",
          "name": "",
          "type": "string"
        }
      ],
      "stateMutability": "view",
      "type": "function"
    },
    {
      "inputs": [
        {
          "internalType": "uint8",
          "name": "_betSelection",
          "type": "uint8"
        }
      ],
      "name": "bet",
      "outputs": [],
      "stateMutability": "payable",
      "type": "function"
    },
    {
      "inputs": [
        {
          "internalType": "address",
          "name": "player",
          "type": "address"
        }
      ],
      "name": "checkPlayerExists",
      "outputs": [
        {
          "internalType": "bool",
          "name": "",
          "type": "bool"
        }
      ],
      "stateMutability": "view",
      "type": "function"
    },
    {
      "inputs": [],
      "name": "distributePrizes",
      "outputs": [],
      "stateMutability": "nonpayable",
      "type": "function"
    },
    {
      "inputs": [],
      "name": "getAmountBetsOnAsPlanned",
      "outputs": [
        {
          "internalType": "uint256",
          "name": "",
          "type": "uint256"
        }
      ],
      "stateMutability": "view",
      "type": "function"
    },
    {
      "inputs": [],
      "name": "getAmountBetsOnCanceled",
      "outputs": [
        {
          "internalType": "uint256",
          "name": "",
          "type": "uint256"
        }
      ],
      "stateMutability": "view",
      "type": "function"
    },
    {
      "inputs": [],
      "name": "getNumberOfPlayers",
      "outputs": [
        {
          "internalType": "uint256",
          "name": "",
          "type": "uint256"
        }
      ],
      "stateMutability": "view",
      "type": "function"
    },
    {
      "inputs": [],
      "name": "getOracleData",
      "outputs": [
        {
          "internalType": "string",
          "name": "",
          "type": "string"
        }
      ],
      "stateMutability": "nonpayable",
      "type": "function"
    },
    {
      "inputs": [],
      "name": "getStatus",
      "outputs": [
        {
          "internalType": "string",
          "name": "",
          "type": "string"
        }
      ],
      "stateMutability": "view",
      "type": "function"
    },
    {
      "inputs": [],
      "name": "minimumBet",
      "outputs": [
        {
          "internalType": "uint256",
          "name": "",
          "type": "uint256"
        }
      ],
      "stateMutability": "view",
      "type": "function"
    },
    {
      "inputs": [
        {
          "internalType": "address",
          "name": "",
          "type": "address"
        }
      ],
      "name": "playerInfo",
      "outputs": [
        {
          "internalType": "uint256",
          "name": "amountBet",
          "type": "uint256"
        },
        {
          "internalType": "uint16",
          "name": "betSelection",
          "type": "uint16"
        }
      ],
      "stateMutability": "view",
      "type": "function"
    },
    {
      "inputs": [
        {
          "internalType": "uint256",
          "name": "",
          "type": "uint256"
        }
      ],
      "name": "players",
      "outputs": [
        {
          "internalType": "address",
          "name": "",
          "type": "address"
        }
      ],
      "stateMutability": "view",
      "type": "function"
    },
    {
      "inputs": [],
      "name": "status",
      "outputs": [
        {
          "internalType": "string",
          "name": "",
          "type": "string"
        }
      ],
      "stateMutability": "view",
      "type": "function"
    },
    {
      "inputs": [],
      "name": "totalBetsOnAsPlanned",
      "outputs": [
        {
          "internalType": "uint256",
          "name": "",
          "type": "uint256"
        }
      ],
      "stateMutability": "view",
      "type": "function"
    },
    {
      "inputs": [],
      "name": "totalBetsOnCanceled",
      "outputs": [
        {
          "internalType": "uint256",
          "name": "",
          "type": "uint256"
        }
      ],
      "stateMutability": "view",
      "type": "function"
    },
    {
      "inputs": [],
      "name": "updatedate",
      "outputs": [
        {
          "internalType": "uint256",
          "name": "",
          "type": "uint256"
        }
      ],
      "stateMutability": "view",
      "type": "function"
    }
  ],
  "bytecode": "0x60806040526040518060400160405280600281526020017f4f4b0000000000000000000000000000000000000000000000000000000000008152506002908051906020019062000051929190620000c9565b506040518060400160405280600981526020017f5363686564756c65640000000000000000000000000000000000000000000000815250600390805190602001906200009f929190620000c9565b5063627a08c0600455348015620000b557600080fd5b50655af3107a40006005819055506200016f565b828054600181600116156101000203166002900490600052602060002090601f016020900481019282601f106200010c57805160ff19168380011785556200013d565b828001600101855582156200013d579182015b828111156200013c5782518255916020019190600101906200011f565b5b5090506200014c919062000150565b5090565b5b808211156200016b57600081600090555060010162000151565b5090565b6116ee806200017f6000396000f3fe6080604052600436106100fe5760003560e01c80637ce52eb611610095578063c7647d4511610064578063c7647d45146104a3578063d0821b0e14610533578063d48fe28014610564578063f71d96cb146105f4578063fd6673f514610659576100fe565b80637ce52eb61461040b5780638408e84714610422578063aaf85d401461044d578063c38a8afd14610478576100fe565b80634e69d560116100d15780634e69d560146102955780636481c5e6146103255780636a8f7f98146103b55780637cc49bfc146103e0576100fe565b8063200d2ed214610103578063330deac4146101935780634081d916146101be5780634b11469114610225575b600080fd5b34801561010f57600080fd5b50610118610684565b6040518080602001828103825283818151815260200191508051906020019080838360005b8381101561015857808201518184015260208101905061013d565b50505050905090810190601f1680156101855780820380516001836020036101000a031916815260200191505b509250505060405180910390f35b34801561019f57600080fd5b506101a8610722565b6040518082815260200191505060405180910390f35b3480156101ca57600080fd5b5061020d600480360360208110156101e157600080fd5b81019080803573ffffffffffffffffffffffffffffffffffffffff169060200190929190505050610728565b60405180821515815260200191505060405180910390f35b34801561023157600080fd5b506102746004803603602081101561024857600080fd5b81019080803573ffffffffffffffffffffffffffffffffffffffff1690602001909291905050506107ca565b604051808381526020018261ffff1681526020019250505060405180910390f35b3480156102a157600080fd5b506102aa6107fc565b6040518080602001828103825283818151815260200191508051906020019080838360005b838110156102ea5780820151818401526020810190506102cf565b50505050905090810190601f1680156103175780820380516001836020036101000a031916815260200191505b509250505060405180910390f35b34801561033157600080fd5b5061033a61089e565b6040518080602001828103825283818151815260200191508051906020019080838360005b8381101561037a57808201518184015260208101905061035f565b50505050905090810190601f1680156103a75780820380516001836020036101000a031916815260200191505b509250505060405180910390f35b3480156103c157600080fd5b506103ca610ae1565b6040518082815260200191505060405180910390f35b3480156103ec57600080fd5b506103f5610ae7565b6040518082815260200191505060405180910390f35b34801561041757600080fd5b50610420610aed565b005b34801561042e57600080fd5b506104376110cf565b6040518082815260200191505060405180910390f35b34801561045957600080fd5b506104626110d9565b6040518082815260200191505060405180910390f35b34801561048457600080fd5b5061048d6110e3565b6040518082815260200191505060405180910390f35b3480156104af57600080fd5b506104b86110e9565b6040518080602001828103825283818151815260200191508051906020019080838360005b838110156104f85780820151818401526020810190506104dd565b50505050905090810190601f1680156105255780820380516001836020036101000a031916815260200191505b509250505060405180910390f35b6105626004803603602081101561054957600080fd5b81019080803560ff169060200190929190505050611187565b005b34801561057057600080fd5b5061057961139d565b6040518080602001828103825283818151815260200191508051906020019080838360005b838110156105b957808201518184015260208101905061059e565b50505050905090810190601f1680156105e65780820380516001836020036101000a031916815260200191505b509250505060405180910390f35b34801561060057600080fd5b5061062d6004803603602081101561061757600080fd5b810190808035906020019092919050505061143b565b604051808273ffffffffffffffffffffffffffffffffffffffff16815260200191505060405180910390f35b34801561066557600080fd5b5061066e611477565b6040518082815260200191505060405180910390f35b60008054600181600116156101000203166002900480601f01602080910402602001604051908101604052809291908181526020018280546001816001161561010002031660029004801561071a5780601f106106ef5761010080835404028352916020019161071a565b820191906000526020600020905b8154815290600101906020018083116106fd57829003601f168201915b505050505081565b60015481565b600080600090505b6008805490508110156107bf578273ffffffffffffffffffffffffffffffffffffffff166008828154811061076157fe5b9060005260206000200160009054906101000a900473ffffffffffffffffffffffffffffffffffffffff1673ffffffffffffffffffffffffffffffffffffffff1614156107b25760019150506107c5565b8080600101915050610730565b50600090505b919050565b60096020528060005260406000206000915090508060000154908060010160009054906101000a900461ffff16905082565b606060008054600181600116156101000203166002900480601f0160208091040260200160405190810160405280929190818152602001828054600181600116156101000203166002900480156108945780601f1061086957610100808354040283529160200191610894565b820191906000526020600020905b81548152906001019060200180831161087757829003601f168201915b5050505050905090565b606060007f56fd879bf2f20477ad163cf0b4bb3eb58bfff6af17b04ba5b277af13362547b460001b90506000738eceddd1377e52d23a46e2bd3df0afe35b526d5f90506000819050606060008273ffffffffffffffffffffffffffffffffffffffff1663986e791a866040518263ffffffff1660e01b81526004018082815260200191505060006040518083038186803b15801561093b57600080fd5b505afa15801561094f573d6000803e3d6000fd5b505050506040513d6000823e3d601f19601f82011682018060405250604081101561097957600080fd5b810190808051604051939291908464010000000082111561099957600080fd5b838201915060208201858111156109af57600080fd5b82518660018202830111640100000000821117156109cc57600080fd5b8083526020830192505050908051906020019080838360005b83811015610a005780820151818401526020810190506109e5565b50505050905090810190601f168015610a2d5780820380516001836020036101000a031916815260200191505b50604052602001805190602001909291905050509150915060608290506000429050600082511415610ab5576004548111610a8b57600360009080546001816001161561010002031660029004610a85929190611484565b50610ab0565b600260009080546001816001161561010002031660029004610aae929190611484565b505b610acd565b8360009080519060200190610acb92919061150b565b505b826001819055508397505050505050505090565b60075481565b60065481565b610af561089e565b5060036040518082805460018160011615610100020316600290048015610b535780601f10610b31576101008083540402835291820191610b53565b820191906000526020600020905b815481529060010190602001808311610b3f575b5050915050604051809103902060006040518082805460018160011615610100020316600290048015610bbd5780601f10610b9b576101008083540402835291820191610bbd565b820191906000526020600020905b815481529060010190602001808311610ba9575b505091505060405180910390201415610c3e576040517f08c379a000000000000000000000000000000000000000000000000000000000815260040180806020018281038252601d8152602001807f547261696e206a6f75726e6579205374696c6c205363686564756c656400000081525060200191505060405180910390fd5b600060026040518082805460018160011615610100020316600290048015610c9d5780601f10610c7b576101008083540402835291820191610c9d565b820191906000526020600020905b815481529060010190602001808311610c89575b5050915050604051809103902060006040518082805460018160011615610100020316600290048015610d075780601f10610ce5576101008083540402835291820191610d07565b820191906000526020600020905b815481529060010190602001808311610cf3575b505091505060405180910390201415610d235760019050610d28565b600290505b610d3061158b565b60008060008060005b600880549050811015610e3b5760088181548110610d5357fe5b9060005260206000200160009054906101000a900473ffffffffffffffffffffffffffffffffffffffff1691508661ffff16600960008473ffffffffffffffffffffffffffffffffffffffff1673ffffffffffffffffffffffffffffffffffffffff16815260200190815260200160002060010160009054906101000a900461ffff1661ffff161415610e2e578186866103e88110610dee57fe5b602002019073ffffffffffffffffffffffffffffffffffffffff16908173ffffffffffffffffffffffffffffffffffffffff168152505084806001019550505b8080600101915050610d39565b5060018661ffff161415610e585760075492506006549150610e63565b600654925060075491505b60005b84811015610f9c57600073ffffffffffffffffffffffffffffffffffffffff1686826103e88110610e9357fe5b602002015173ffffffffffffffffffffffffffffffffffffffff1614610f8f57600086826103e88110610ec257fe5b602002015190506000600960008373ffffffffffffffffffffffffffffffffffffffff1673ffffffffffffffffffffffffffffffffffffffff168152602001908152602001600020600001549050600088846103e88110610f1f57fe5b602002015190508073ffffffffffffffffffffffffffffffffffffffff166108fc612710886127108b0281610f5057fe5b0461271001850281610f5e57fe5b049081150290604051600060405180830381858888f19350505050158015610f8a573d6000803e3d6000fd5b505050505b8080600101915050610e66565b5060005b600880549050811015611050576009600060088381548110610fbe57fe5b9060005260206000200160009054906101000a900473ffffffffffffffffffffffffffffffffffffffff1673ffffffffffffffffffffffffffffffffffffffff1673ffffffffffffffffffffffffffffffffffffffff1681526020019081526020016000206000808201600090556001820160006101000a81549061ffff021916905550508080600101915050610fa0565b50600067ffffffffffffffff8111801561106957600080fd5b506040519080825280602002602001820160405280156110985781602001602082028036833780820191505090505b50600890805190602001906110ae9291906115af565b50600092506000915060006006819055506000600781905550505050505050565b6000600654905090565b6000600754905090565b60055481565b60038054600181600116156101000203166002900480601f01602080910402602001604051908101604052809291908181526020018280546001816001161561010002031660029004801561117f5780601f106111545761010080835404028352916020019161117f565b820191906000526020600020905b81548152906001019060200180831161116257829003601f168201915b505050505081565b61119033610728565b15611203576040517f08c379a000000000000000000000000000000000000000000000000000000000815260040180806020018281038252600c8152602001807f706c61796572206578697374000000000000000000000000000000000000000081525060200191505060405180910390fd5b60055434101561125e576040517f08c379a00000000000000000000000000000000000000000000000000000000081526004018080602001828103825260278152602001806116926027913960400191505060405180910390fd5b34600960003373ffffffffffffffffffffffffffffffffffffffff1673ffffffffffffffffffffffffffffffffffffffff168152602001908152602001600020600001819055508060ff16600960003373ffffffffffffffffffffffffffffffffffffffff1673ffffffffffffffffffffffffffffffffffffffff16815260200190815260200160002060010160006101000a81548161ffff021916908361ffff1602179055506008339080600181540180825580915050600190039060005260206000200160009091909190916101000a81548173ffffffffffffffffffffffffffffffffffffffff021916908373ffffffffffffffffffffffffffffffffffffffff16021790555060018160ff161415611389573460066000828254019250508190555061139a565b346007600082825401925050819055505b50565b60028054600181600116156101000203166002900480601f0160208091040260200160405190810160405280929190818152602001828054600181600116156101000203166002900480156114335780601f1061140857610100808354040283529160200191611433565b820191906000526020600020905b81548152906001019060200180831161141657829003601f168201915b505050505081565b6008818154811061144857fe5b906000526020600020016000915054906101000a900473ffffffffffffffffffffffffffffffffffffffff1681565b6000600880549050905090565b828054600181600116156101000203166002900490600052602060002090601f016020900481019282601f106114bd57805485556114fa565b828001600101855582156114fa57600052602060002091601f016020900482015b828111156114f95782548255916001019190600101906114de565b5b5090506115079190611639565b5090565b828054600181600116156101000203166002900490600052602060002090601f016020900481019282601f1061154c57805160ff191683800117855561157a565b8280016001018555821561157a579182015b8281111561157957825182559160200191906001019061155e565b5b5090506115879190611639565b5090565b60405180617d0001604052806103e890602082028036833780820191505090505090565b828054828255906000526020600020908101928215611628579160200282015b828111156116275782518260006101000a81548173ffffffffffffffffffffffffffffffffffffffff021916908373ffffffffffffffffffffffffffffffffffffffff160217905550916020019190600101906115cf565b5b5090506116359190611656565b5090565b5b8082111561165257600081600090555060010161163a565b5090565b5b8082111561168d57600081816101000a81549073ffffffffffffffffffffffffffffffffffffffff021916905550600101611657565b509056fe56616c7565206d757374206265206d6f7265207468616e20746865206d696e696d756d20626574a264697066735822122021caf2917a3c979b9ed14177c97f34d842d0ef54061d36312a180ec8a2b21aa364736f6c634300060c0033",
  "linkReferences": {},
  "deployedLinkReferences": {}
}